{
  "contractName": "Lottery",
  "abi": [
    {
      "inputs": [],
      "stateMutability": "nonpayable",
      "type": "constructor"
    },
    {
      "inputs": [],
      "name": "manager",
      "outputs": [
        {
          "internalType": "address",
          "name": "",
          "type": "address"
        }
      ],
      "stateMutability": "view",
      "type": "function",
      "constant": true
    },
    {
      "inputs": [
        {
          "internalType": "uint256",
          "name": "",
          "type": "uint256"
        }
      ],
      "name": "players",
      "outputs": [
        {
          "internalType": "address payable",
          "name": "",
          "type": "address"
        }
      ],
      "stateMutability": "view",
      "type": "function",
      "constant": true
    },
    {
      "inputs": [],
      "name": "winner",
      "outputs": [
        {
          "internalType": "address payable",
          "name": "",
          "type": "address"
        }
      ],
      "stateMutability": "view",
      "type": "function",
      "constant": true
    },
    {
      "stateMutability": "payable",
      "type": "receive",
      "payable": true
    },
    {
      "inputs": [],
      "name": "getBalance",
      "outputs": [
        {
          "internalType": "uint256",
          "name": "",
          "type": "uint256"
        }
      ],
      "stateMutability": "view",
      "type": "function",
      "constant": true
    },
    {
      "inputs": [],
      "name": "pickWinner",
      "outputs": [],
      "stateMutability": "nonpayable",
      "type": "function"
    },
    {
      "inputs": [],
      "name": "allPlayers",
      "outputs": [
        {
          "internalType": "address payable[]",
          "name": "",
          "type": "address[]"
        }
      ],
      "stateMutability": "view",
      "type": "function",
      "constant": true
    }
  ],
  "bytecode": "0x608060405234801561001057600080fd5b5033600160006101000a81548173ffffffffffffffffffffffffffffffffffffffff021916908373ffffffffffffffffffffffffffffffffffffffff160217905550610ba0806100616000396000f3fe6080604052600436106100595760003560e01c806312065fe014610111578063481c6a751461013c5780635d495aea14610167578063b0ec80941461017e578063dfbf53ae146101a9578063f71d96cb146101d45761010c565b3661010c57662386f26fc1000034146100a7576040517f08c379a000000000000000000000000000000000000000000000000000000000815260040161009e9061074c565b60405180910390fd5b6000339080600181540180825580915050600190039060005260206000200160009091909190916101000a81548173ffffffffffffffffffffffffffffffffffffffff021916908373ffffffffffffffffffffffffffffffffffffffff160217905550005b600080fd5b34801561011d57600080fd5b50610126610211565b6040516101339190610785565b60405180910390f35b34801561014857600080fd5b506101516102a9565b60405161015e91906107e1565b60405180910390f35b34801561017357600080fd5b5061017c6102cf565b005b34801561018a57600080fd5b5061019361051b565b6040516101a091906108cc565b60405180910390f35b3480156101b557600080fd5b506101be6105a9565b6040516101cb91906108fd565b60405180910390f35b3480156101e057600080fd5b506101fb60048036038101906101f69190610949565b6105cf565b60405161020891906108fd565b60405180910390f35b60003373ffffffffffffffffffffffffffffffffffffffff16600160009054906101000a900473ffffffffffffffffffffffffffffffffffffffff1673ffffffffffffffffffffffffffffffffffffffff16146102a3576040517f08c379a000000000000000000000000000000000000000000000000000000000815260040161029a906109c2565b60405180910390fd5b47905090565b600160009054906101000a900473ffffffffffffffffffffffffffffffffffffffff1681565b3373ffffffffffffffffffffffffffffffffffffffff16600160009054906101000a900473ffffffffffffffffffffffffffffffffffffffff1673ffffffffffffffffffffffffffffffffffffffff161461035f576040517f08c379a0000000000000000000000000000000000000000000000000000000008152600401610356906109c2565b60405180910390fd5b600360008054905010156103a8576040517f08c379a000000000000000000000000000000000000000000000000000000000815260040161039f90610a2e565b60405180910390fd5b60006103b261060e565b905060008080549050826103c69190610a7d565b9050600081815481106103dc576103db610aae565b5b9060005260206000200160009054906101000a900473ffffffffffffffffffffffffffffffffffffffff16600260006101000a81548173ffffffffffffffffffffffffffffffffffffffff021916908373ffffffffffffffffffffffffffffffffffffffff160217905550600260009054906101000a900473ffffffffffffffffffffffffffffffffffffffff1673ffffffffffffffffffffffffffffffffffffffff166108fc61048b610211565b9081150290604051600060405180830381858888f193505050501580156104b6573d6000803e3d6000fd5b50600067ffffffffffffffff8111156104d2576104d1610add565b5b6040519080825280602002602001820160405280156105005781602001602082028036833780820191505090505b5060009080519060200190610516929190610648565b505050565b6060600080548060200260200160405190810160405280929190818152602001828054801561059f57602002820191906000526020600020905b8160009054906101000a900473ffffffffffffffffffffffffffffffffffffffff1673ffffffffffffffffffffffffffffffffffffffff1681526020019060010190808311610555575b5050505050905090565b600260009054906101000a900473ffffffffffffffffffffffffffffffffffffffff1681565b600081815481106105df57600080fd5b906000526020600020016000915054906101000a900473ffffffffffffffffffffffffffffffffffffffff1681565b6000444260008054905060405160200161062a93929190610b2d565b6040516020818303038152906040528051906020012060001c905090565b8280548282559060005260206000209081019282156106c1579160200282015b828111156106c05782518260006101000a81548173ffffffffffffffffffffffffffffffffffffffff021916908373ffffffffffffffffffffffffffffffffffffffff16021790555091602001919060010190610668565b5b5090506106ce91906106d2565b5090565b5b808211156106eb5760008160009055506001016106d3565b5090565b600082825260208201905092915050565b7f506c65617365207061792031206574686572206f6e6c79000000000000000000600082015250565b60006107366017836106ef565b915061074182610700565b602082019050919050565b6000602082019050818103600083015261076581610729565b9050919050565b6000819050919050565b61077f8161076c565b82525050565b600060208201905061079a6000830184610776565b92915050565b600073ffffffffffffffffffffffffffffffffffffffff82169050919050565b60006107cb826107a0565b9050919050565b6107db816107c0565b82525050565b60006020820190506107f660008301846107d2565b92915050565b600081519050919050565b600082825260208201905092915050565b6000819050602082019050919050565b6000610833826107a0565b9050919050565b61084381610828565b82525050565b6000610855838361083a565b60208301905092915050565b6000602082019050919050565b6000610879826107fc565b6108838185610807565b935061088e83610818565b8060005b838110156108bf5781516108a68882610849565b97506108b183610861565b925050600181019050610892565b5085935050505092915050565b600060208201905081810360008301526108e6818461086e565b905092915050565b6108f781610828565b82525050565b600060208201905061091260008301846108ee565b92915050565b600080fd5b6109268161076c565b811461093157600080fd5b50565b6000813590506109438161091d565b92915050565b60006020828403121561095f5761095e610918565b5b600061096d84828501610934565b91505092915050565b7f596f7520617265206e6f7420746865206d616e61676572000000000000000000600082015250565b60006109ac6017836106ef565b91506109b782610976565b602082019050919050565b600060208201905081810360008301526109db8161099f565b9050919050565b7f506c617965727320617265206c657373207468616e2033000000000000000000600082015250565b6000610a186017836106ef565b9150610a23826109e2565b602082019050919050565b60006020820190508181036000830152610a4781610a0b565b9050919050565b7f4e487b7100000000000000000000000000000000000000000000000000000000600052601260045260246000fd5b6000610a888261076c565b9150610a938361076c565b925082610aa357610aa2610a4e565b5b828206905092915050565b7f4e487b7100000000000000000000000000000000000000000000000000000000600052603260045260246000fd5b7f4e487b7100000000000000000000000000000000000000000000000000000000600052604160045260246000fd5b6000819050919050565b610b27610b228261076c565b610b0c565b82525050565b6000610b398286610b16565b602082019150610b498285610b16565b602082019150610b598284610b16565b60208201915081905094935050505056fea2646970667358221220b39b86aa65bd64d4e1be217f40f4903667ead1f44e75beac78010d7f4ba5294764736f6c634300080b0033",
  "immutableReferences": {},
  "source": "// SPDX-License-Identifier: MIT\r\npragma solidity >=0.5.0 <0.9.0;\r\n\r\ncontract Lottery {\r\n    address payable[] public players;\r\n    address public manager;\r\n    address payable public winner;\r\n\r\n    constructor() {\r\n        manager =msg.sender;\r\n    }\r\n\r\n\r\n\r\n    receive() external payable {\r\n        require(msg.value ==0.01 ether ,\"Please pay 1 ether only\");\r\n        players.push(payable(msg.sender));\r\n    }\r\n\r\n    function getBalance() public view returns(uint){\r\n        require(manager == msg.sender, \"You are not the manager\");\r\n        return address(this).balance;\r\n    }\r\n\r\n    function random() internal view returns(uint){\r\n        return uint(keccak256(abi.encodePacked(block.difficulty, block.timestamp, players.length)));\r\n    }\r\n\r\n    function pickWinner() public {\r\n        require(manager == msg.sender, \"You are not the manager\");\r\n        require(players.length >=3, \"Players are less than 3\");\r\n\r\n        uint r=random();\r\n        uint index=r%players.length;\r\n        winner = players[index];\r\n        winner.transfer(getBalance());\r\n        players = new address payable[](0);\r\n    }\r\n\r\n    function allPlayers() public view returns(address payable[] memory ){\r\n        return players;\r\n    }\r\n\r\n}\r\n\r\n// 0x866b91F25c72472185Bef150645e827C5B6313e6\r\n// Ganache : 0x26dfE7e29DC6F646555fE090399f7254B6716178\r\n",
  "sourcePath": "C:\\Users\\iamsh\\Documents\\Blockchain\\web3lab\\contracts\\Lottery.sol",
  "compiler": {
    "name": "solc",
    "version": "0.8.11+commit.d7f03943.Emscripten.clang"
  },
  "schemaVersion": "3.4.11",
  "updatedAt": "2022-12-18T15:52:28.374Z",
  "networkType": "ethereum",
  "devdoc": {
    "kind": "dev",
    "methods": {},
    "version": 1
  },
  "userdoc": {
    "kind": "user",
    "methods": {},
    "version": 1
  }
}